Component: ARM Compiler 5.06 update 7 (build 960) Tool: armlink [4d3601]

==============================================================================

Section Cross References

    main.o(i.main) refers to bsp_usart.o(i.USART_Config) for USART_Config
    main.o(i.main) refers to bsp_led.o(i.LED_GPIO_Config) for LED_GPIO_Config
    main.o(i.main) refers to bsp_beep.o(i.BEEP_GPIO_Config) for BEEP_GPIO_Config
    main.o(i.main) refers to bsp_ili9341_lcd.o(i.ILI9341_Init) for ILI9341_Init
    main.o(i.main) refers to bsp_ili9341_lcd.o(i.LCD_SetTextColor) for LCD_SetTextColor
    main.o(i.main) refers to bsp_ili9341_lcd.o(i.LCD_SetBackColor) for LCD_SetBackColor
    main.o(i.main) refers to bsp_ili9341_lcd.o(i.ILI9341_Clear) for ILI9341_Clear
    main.o(i.main) refers to bsp_rtc.o(i.RTC_NVIC_Config) for RTC_NVIC_Config
    main.o(i.main) refers to bsp_rtc.o(i.RTC_CheckAndConfig) for RTC_CheckAndConfig
    main.o(i.main) refers to bsp_date.o(i.mktimev) for mktimev
    main.o(i.main) refers to stm32f10x_rtc.o(i.RTC_SetAlarm) for RTC_SetAlarm
    main.o(i.main) refers to bsp_hc05.o(i.HC05_Init) for HC05_Init
    main.o(i.main) refers to stm32f10x_rtc.o(i.RTC_GetCounter) for RTC_GetCounter
    main.o(i.main) refers to bsp_rtc.o(i.Time_Display) for Time_Display
    main.o(i.main) refers to bsp_key.o(i.Key_Scan) for Key_Scan
    main.o(i.main) refers to bsp_rtc.o(i.Time_Regulate_Get) for Time_Regulate_Get
    main.o(i.main) refers to bsp_rtc.o(i.Time_Adjust) for Time_Adjust
    main.o(i.main) refers to stm32f10x_bkp.o(i.BKP_WriteBackupRegister) for BKP_WriteBackupRegister
==============================================================================

Removing Unused input sections from the image.

    Removing bsp_rtc.o(i.Time_Show), (36 bytes).
    Removing bsp_ili9341_lcd.o(i.ILI9341_DispStringLine_EN), (104 bytes).
    Removing bsp_ili9341_lcd.o(i.ILI9341_DispString_CH), (96 bytes).
    Removing bsp_ili9341_lcd.o(i.ILI9341_DispString_EN), (104 bytes).
    Removing bsp_ili9341_lcd.o(i.ILI9341_DispString_EN_CH), (180 bytes).
    Removing bsp_ili9341_lcd.o(i.ILI9341_DispString_EN_CH_YDir), (120 bytes).
    Removing bsp_ili9341_lcd.o(i.ILI9341_DispString_EN_YDir), (104 bytes).
    Removing bsp_ili9341_lcd.o(i.ILI9341_DisplayStringEx), (264 bytes).
    Removing bsp_ili9341_lcd.o(i.ILI9341_DisplayStringEx_YDir), (268 bytes).
    Removing bsp_ili9341_lcd.o(i.ILI9341_DrawChar_Ex), (100 bytes).
    Removing bsp_ili9341_lcd.o(i.ILI9341_DrawCircle), (312 bytes).
    Removing bsp_ili9341_lcd.o(i.ILI9341_DrawLine), (160 bytes).
    Removing bsp_ili9341_lcd.o(i.ILI9341_DrawRectangle), (136 bytes).
    Removing bsp_ili9341_lcd.o(i.ILI9341_GetPointPixel), (24 bytes).
    Removing bsp_ili9341_lcd.o(i.ILI9341_Read_PixelData), (56 bytes).
    Removing bsp_ili9341_lcd.o(i.ILI9341_SetCursor), (20 bytes).
    Removing bsp_ili9341_lcd.o(i.ILI9341_SetPointPixel), (56 bytes).
    Removing bsp_ili9341_lcd.o(i.ILI9341_zoomChar), (388 bytes).
==============================================================================

Image Symbol Table

    Local Symbols

    Symbol Name                              Value     Ov Type        Size  Object(Section)

    ../clib/../cmprslib/zerorunl2.c          0x00000000   Number         0  __dczerorl2.o ABSOLUTE
    ../clib/microlib/ctype/ctype.c           0x00000000   Number         0  isspace_c.o ABSOLUTE
    ../clib/microlib/ctype/ctype.c           0x00000000   Number         0  ctype_c.o ABSOLUTE
    ../clib/microlib/division.c              0x00000000   Number         0  uldiv.o ABSOLUTE
    ../clib/microlib/division.c              0x00000000   Number         0  uidiv.o ABSOLUTE
    ../clib/microlib/init/entry.s            0x00000000   Number         0  entry7b.o ABSOLUTE
    ../clib/microlib/init/entry.s            0x00000000   Number         0  entry8b.o ABSOLUTE
    ../clib/microlib/init/entry.s            0x00000000   Number         0  entry11b.o ABSOLUTE
    ../clib/microlib/init/entry.s            0x00000000   Number         0  entry12a.o ABSOLUTE
    ../clib/microlib/init/entry.s            0x00000000   Number         0  entry12b.o ABSOLUTE
    ../clib/microlib/init/entry.s            0x00000000   Number         0  entry7a.o ABSOLUTE
    ../clib/microlib/init/entry.s            0x00000000   Number         0  entry9b.o ABSOLUTE
    ../clib/microlib/init/entry.s            0x00000000   Number         0  entry.o ABSOLUTE
    ../clib/microlib/init/entry.s            0x00000000   Number         0  entry8a.o ABSOLUTE
    ../clib/microlib/init/entry.s            0x00000000   Number         0  entry2.o ABSOLUTE
    ../clib/microlib/init/entry.s            0x00000000   Number         0  entry10a.o ABSOLUTE
    ../clib/microlib/init/entry.s            0x00000000   Number         0  entry5.o ABSOLUTE
    ../clib/microlib/init/entry.s            0x00000000   Number         0  entry9a.o ABSOLUTE
    ../clib/microlib/init/entry.s            0x00000000   Number         0  entry10b.o ABSOLUTE
    ../clib/microlib/init/entry.s            0x00000000   Number         0  entry11a.o ABSOLUTE
    ../clib/microlib/longlong.c              0x00000000   Number         0  llsshr.o ABSOLUTE
    ../clib/microlib/longlong.c              0x00000000   Number         0  llushr.o ABSOLUTE
    ../clib/microlib/longlong.c              0x00000000   Number         0  llshl.o ABSOLUTE
    ../clib/microlib/printf/printf.c         0x00000000   Number         0  printf0.o ABSOLUTE
    ../clib/microlib/printf/printf.c         0x00000000   Number         0  printf1.o ABSOLUTE
    ../clib/microlib/printf/printf.c         0x00000000   Number         0  printfb.o ABSOLUTE
    ../clib/microlib/printf/printf.c         0x00000000   Number         0  printf2.o ABSOLUTE
    ../clib/microlib/printf/printf.c         0x00000000   Number         0  printf3.o ABSOLUTE
    ../clib/microlib/printf/printf.c         0x00000000   Number         0  printf4.o ABSOLUTE
    ../clib/microlib/printf/printf.c         0x00000000   Number         0  printf5.o ABSOLUTE
    ../clib/microlib/printf/printf.c         0x00000000   Number         0  printf6.o ABSOLUTE
    ../clib/microlib/printf/printf.c         0x00000000   Number         0  printf7.o ABSOLUTE
    ../clib/microlib/printf/printf.c         0x00000000   Number         0  printfa.o ABSOLUTE
    ../clib/microlib/printf/printf.c         0x00000000   Number         0  printf8.o ABSOLUTE
    ../clib/microlib/printf/stubs.s          0x00000000   Number         0  stubs.o ABSOLUTE
    ../clib/microlib/stdio/fgetc.c           0x00000000   Number         0  fgetc_b.o ABSOLUTE
    ../clib/microlib/stdio/semi.s            0x00000000   Number         0  semi.o ABSOLUTE
    ../clib/microlib/stdio/streams.c         0x00000000   Number         0  stdout.o ABSOLUTE
    ../clib/microlib/stdio/streams.c         0x00000000   Number         0  stdin.o ABSOLUTE
    ../clib/microlib/string/memcpy.c         0x00000000   Number         0  memcpya.o ABSOLUTE
    ../clib/microlib/string/memcpy.c         0x00000000   Number         0  memcpyb.o ABSOLUTE
    ../clib/microlib/string/memset.c         0x00000000   Number         0  memseta.o ABSOLUTE
    ../clib/microlib/stubs.s                 0x00000000   Number         0  iusesemig.o ABSOLUTE
    ../clib/microlib/stubs.s                 0x00000000   Number         0  iusefp.o ABSOLUTE
    ../clib/scanf.c                          0x00000000   Number         0  scanf_char_file.o ABSOLUTE
    ../clib/scanf.c                          0x00000000   Number         0  _scanf.o ABSOLUTE
    ../clib/scanf.c                          0x00000000   Number         0  _scanf_int.o ABSOLUTE
    ../clib/scanf.c                          0x00000000   Number         0  __0scanf.o ABSOLUTE
    ../clib/scanf.c                          0x00000000   Number         0  _chval.o ABSOLUTE
    ../clib/scanf.c                          0x00000000   Number         0  scanf_char.o ABSOLUTE
    ../fplib/microlib/fpadd.c                0x00000000   Number         0  dadd.o ABSOLUTE
    ../fplib/microlib/fpdiv.c                0x00000000   Number         0  ddiv.o ABSOLUTE
    ../fplib/microlib/fpepilogue.c           0x00000000   Number         0  depilogue.o ABSOLUTE
    ../fplib/microlib/fpfix.c                0x00000000   Number         0  dfixul.o ABSOLUTE
    ../fplib/microlib/fpmul.c                0x00000000   Number         0  dmul.o ABSOLUTE
    Core\\core_cm3.c                         0x00000000   Number         0  core_cm3.o ABSOLUTE
    Core\core_cm3.c                          0x00000000   Number         0  core_cm3.o ABSOLUTE
    Core\system_stm32f10x.c                  0x00000000   Number         0  system_stm32f10x.o ABSOLUTE
    FWlib\src\misc.c                         0x00000000   Number         0  misc.o ABSOLUTE
    FWlib\src\stm32f10x_adc.c                0x00000000   Number         0  stm32f10x_adc.o ABSOLUTE
    FWlib\src\stm32f10x_bkp.c                0x00000000   Number         0  stm32f10x_bkp.o ABSOLUTE
    FWlib\src\stm32f10x_can.c                0x00000000   Number         0  stm32f10x_can.o ABSOLUTE
    FWlib\src\stm32f10x_cec.c                0x00000000   Number         0  stm32f10x_cec.o ABSOLUTE
    FWlib\src\stm32f10x_crc.c                0x00000000   Number         0  stm32f10x_crc.o ABSOLUTE
    FWlib\src\stm32f10x_dac.c                0x00000000   Number         0  stm32f10x_dac.o ABSOLUTE
    FWlib\src\stm32f10x_dbgmcu.c             0x00000000   Number         0  stm32f10x_dbgmcu.o ABSOLUTE
    FWlib\src\stm32f10x_dma.c                0x00000000   Number         0  stm32f10x_dma.o ABSOLUTE
    FWlib\src\stm32f10x_exti.c               0x00000000   Number         0  stm32f10x_exti.o ABSOLUTE
    FWlib\src\stm32f10x_flash.c              0x00000000   Number         0  stm32f10x_flash.o ABSOLUTE
    FWlib\src\stm32f10x_fsmc.c               0x00000000   Number         0  stm32f10x_fsmc.o ABSOLUTE
    FWlib\src\stm32f10x_gpio.c               0x00000000   Number         0  stm32f10x_gpio.o ABSOLUTE
    FWlib\src\stm32f10x_i2c.c                0x00000000   Number         0  stm32f10x_i2c.o ABSOLUTE
    FWlib\src\stm32f10x_iwdg.c               0x00000000   Number         0  stm32f10x_iwdg.o ABSOLUTE
    FWlib\src\stm32f10x_pwr.c                0x00000000   Number         0  stm32f10x_pwr.o ABSOLUTE
    FWlib\src\stm32f10x_rcc.c                0x00000000   Number         0  stm32f10x_rcc.o ABSOLUTE
    FWlib\src\stm32f10x_rtc.c                0x00000000   Number         0  stm32f10x_rtc.o ABSOLUTE
    FWlib\src\stm32f10x_sdio.c               0x00000000   Number         0  stm32f10x_sdio.o ABSOLUTE
    FWlib\src\stm32f10x_spi.c                0x00000000   Number         0  stm32f10x_spi.o ABSOLUTE
    FWlib\src\stm32f10x_tim.c                0x00000000   Number         0  stm32f10x_tim.o ABSOLUTE
    FWlib\src\stm32f10x_usart.c              0x00000000   Number         0  stm32f10x_usart.o ABSOLUTE
    FWlib\src\stm32f10x_wwdg.c               0x00000000   Number         0  stm32f10x_wwdg.o ABSOLUTE
    StartUp\startup_stm32f10x_hd.s           0x00000000   Number         0  startup_stm32f10x_hd.o ABSOLUTE
    User\Delay\delay.c                       0x00000000   Number         0  delay.o ABSOLUTE
    User\Key\bsp_key.c                       0x00000000   Number         0  bsp_key.o ABSOLUTE
    User\beep\bsp_beep.c                     0x00000000   Number         0  bsp_beep.o ABSOLUTE
    User\flash\bsp_spi_flash.c               0x00000000   Number         0  bsp_spi_flash.o ABSOLUTE
    User\font\fonts.c                        0x00000000   Number         0  fonts.o ABSOLUTE
    User\hc05\bsp_hc05.c                     0x00000000   Number         0  bsp_hc05.o ABSOLUTE
    User\lcd\bsp_ili9341_lcd.c               0x00000000   Number         0  bsp_ili9341_lcd.o ABSOLUTE
    User\led\bsp_led.c                       0x00000000   Number         0  bsp_led.o ABSOLUTE
    User\main.c                              0x00000000   Number         0  main.o ABSOLUTE
    User\rtc\bsp_calendar.c                  0x00000000   Number         0  bsp_calendar.o ABSOLUTE
    User\rtc\bsp_date.c                      0x00000000   Number         0  bsp_date.o ABSOLUTE
    User\rtc\bsp_rtc.c                       0x00000000   Number         0  bsp_rtc.o ABSOLUTE
    User\stm32f10x_it.c                      0x00000000   Number         0  stm32f10x_it.o ABSOLUTE
    User\usart\bsp_usart.c                   0x00000000   Number         0  bsp_usart.o ABSOLUTE
    User\usart\bsp_usart_blt.c               0x00000000   Number         0  bsp_usart_blt.o ABSOLUTE
    cdrcmple.s                               0x00000000   Number         0  cdrcmple.o ABSOLUTE
    dc.s                                     0x00000000   Number         0  dc.o ABSOLUTE
    handlers.s                               0x00000000   Number         0  handlers.o ABSOLUTE
    init.s                                   0x00000000   Number         0  init.o ABSOLUTE
    RESET                                    0x08000000   Section      304  startup_stm32f10x_hd.o(RESET)
    .ARM.Collect$$$$00000000                 0x08000130   Section        0  entry.o(.ARM.Collect$$$$00000000)
    .ARM.Collect$$$$00000001                 0x08000130   Section        4  entry2.o(.ARM.Collect$$$$00000001)
    .ARM.Collect$$$$00000004                 0x08000134   Section        4  entry5.o(.ARM.Collect$$$$00000004)
    .ARM.Collect$$$$00000008                 0x08000138   Section        0  entry7b.o(.ARM.Collect$$$$00000008)
    .ARM.Collect$$$$0000000A                 0x08000138   Section        0  entry8b.o(.ARM.Collect$$$$0000000A)
    .ARM.Collect$$$$0000000B                 0x08000138   Section        8  entry9a.o(.ARM.Collect$$$$0000000B)
    .ARM.Collect$$$$0000000E                 0x08000140   Section        4  entry12b.o(.ARM.Collect$$$$0000000E)
    .ARM.Collect$$$$0000000F                 0x08000144   Section        0  entry10a.o(.ARM.Collect$$$$0000000F)
    .ARM.Collect$$$$00000011                 0x08000144   Section        0  entry11a.o(.ARM.Collect$$$$00000011)
    .ARM.Collect$$$$00002712                 0x08000144   Section        4  entry2.o(.ARM.Collect$$$$00002712)
    __lit__00000000                          0x08000144   Data           4  entry2.o(.ARM.Collect$$$$00002712)
    .text                                    0x08000148   Section       36  startup_stm32f10x_hd.o(.text)
    .text                                    0x0800016c   Section        0  memcpya.o(.text)
    .text                                    0x08000190   Section        0  memseta.o(.text)
    .text                                    0x080001b4   Section        0  __0scanf.o(.text)
    .text                                    0x080001d4   Section        0  _scanf_int.o(.text)
    .text                                    0x08000320   Section        0  uidiv.o(.text)
    .text                                    0x0800034c   Section        0  _chval.o(.text)
    .text                                    0x08000368   Section        0  scanf_char_file.o(.text)
    .text                                    0x0800037c   Section       36  init.o(.text)
    .text                                    0x080003a0   Section        0  fgetc_b.o(.text)
    .text                                    0x080003cc   Section        0  scanf_char.o(.text)
    _scanf_char_input                        0x080003cd   Thumb Code    12  scanf_char.o(.text)
    .text                                    0x080003f4   Section        0  isspace_c.o(.text)
    .text                                    0x080003f4   Section        0  semi.o(.text)
    .text                                    0x08000400   Section        0  _scanf.o(.text)
    .text                                    0x08000730   Section        0  ctype_c.o(.text)
    .text                                    0x08000730   Section        0  iusesemig.o(.text)
    .text                                    0x08000758   Section        0  __dczerorl2.o(.text)
    i.BEEP_GPIO_Config                       0x080007b0   Section        0  bsp_beep.o(i.BEEP_GPIO_Config)
    i.BKP_DeInit                             0x080007e8   Section        0  stm32f10x_bkp.o(i.BKP_DeInit)
    i.BKP_ReadBackupRegister                 0x080007f8   Section        0  stm32f10x_bkp.o(i.BKP_ReadBackupRegister)
    i.BKP_WriteBackupRegister                0x08000814   Section        0  stm32f10x_bkp.o(i.BKP_WriteBackupRegister)
    i.BLT_NVIC_Configuration                 0x08000830   Section        0  bsp_usart_blt.o(i.BLT_NVIC_Configuration)
    BLT_NVIC_Configuration                   0x08000831   Thumb Code    38  bsp_usart_blt.o(i.BLT_NVIC_Configuration)
    i.BLT_USART_Config                       0x08000858   Section        0  bsp_usart_blt.o(i.BLT_USART_Config)
    i.BusFault_Handler                       0x080008f8   Section        0  stm32f10x_it.o(i.BusFault_Handler)
    i.DebugMon_Handler                       0x080008fc   Section        0  stm32f10x_it.o(i.DebugMon_Handler)
    i.Delay_ms                               0x08000900   Section        0  delay.o(i.Delay_ms)
    i.FSMC_NORSRAMCmd                        0x0800093c   Section        0  stm32f10x_fsmc.o(i.FSMC_NORSRAMCmd)
    i.FSMC_NORSRAMInit                       0x08000970   Section        0  stm32f10x_fsmc.o(i.FSMC_NORSRAMInit)
    i.GPIO_Init                              0x08000a56   Section        0  stm32f10x_gpio.o(i.GPIO_Init)
    i.GPIO_ReadInputDataBit                  0x08000b6c   Section        0  stm32f10x_gpio.o(i.GPIO_ReadInputDataBit)
    i.GPIO_ResetBits                         0x08000b7e   Section        0  stm32f10x_gpio.o(i.GPIO_ResetBits)
    i.GPIO_SetBits                           0x08000b82   Section        0  stm32f10x_gpio.o(i.GPIO_SetBits)
    i.GetChinaCalendar                       0x08000b88   Section        0  bsp_calendar.o(i.GetChinaCalendar)
    i.GetChinaCalendarStr                    0x08000d90   Section        0  bsp_calendar.o(i.GetChinaCalendarStr)
    i.GetGBKCode_from_EXFlash                0x08000eb8   Section        0  fonts.o(i.GetGBKCode_from_EXFlash)
    i.GetJieQi                               0x08000f0c   Section        0  bsp_calendar.o(i.GetJieQi)
    i.GetJieQiStr                            0x08000fb4   Section        0  bsp_calendar.o(i.GetJieQiStr)
    i.GetMoonDay                             0x080010f8   Section        0  bsp_calendar.o(i.GetMoonDay)
    i.GetSkyEarth                            0x08001218   Section        0  bsp_calendar.o(i.GetSkyEarth)
    i.GregorianDay                           0x08001250   Section        0  bsp_date.o(i.GregorianDay)
    i.HC05_GPIO_Config                       0x080012e8   Section        0  bsp_hc05.o(i.HC05_GPIO_Config)
    HC05_GPIO_Config                         0x080012e9   Thumb Code    68  bsp_hc05.o(i.HC05_GPIO_Config)
    i.HC05_Init                              0x08001330   Section        0  bsp_hc05.o(i.HC05_Init)
    i.HardFault_Handler                      0x08001384   Section        0  stm32f10x_it.o(i.HardFault_Handler)
    i.ILI9341_BackLed_Control                0x08001388   Section        0  bsp_ili9341_lcd.o(i.ILI9341_BackLed_Control)
    i.ILI9341_Clear                          0x080013ac   Section        0  bsp_ili9341_lcd.o(i.ILI9341_Clear)
    i.ILI9341_Delay                          0x080013d8   Section        0  bsp_ili9341_lcd.o(i.ILI9341_Delay)
    ILI9341_Delay                            0x080013d9   Thumb Code    18  bsp_ili9341_lcd.o(i.ILI9341_Delay)
    i.ILI9341_DispChar_CH                    0x080013ec   Section        0  bsp_ili9341_lcd.o(i.ILI9341_DispChar_CH)
    i.ILI9341_DispChar_EN                    0x08001470   Section        0  bsp_ili9341_lcd.o(i.ILI9341_DispChar_EN)
    i.ILI9341_DispStringLine_EN_CH           0x08001508   Section        0  bsp_ili9341_lcd.o(i.ILI9341_DispStringLine_EN_CH)
    i.ILI9341_FSMC_Config                    0x080015bc   Section        0  bsp_ili9341_lcd.o(i.ILI9341_FSMC_Config)
    ILI9341_FSMC_Config                      0x080015bd   Thumb Code   110  bsp_ili9341_lcd.o(i.ILI9341_FSMC_Config)
    i.ILI9341_FillColor                      0x0800162a   Section        0  bsp_ili9341_lcd.o(i.ILI9341_FillColor)
    ILI9341_FillColor                        0x0800162b   Thumb Code    32  bsp_ili9341_lcd.o(i.ILI9341_FillColor)
    i.ILI9341_GPIO_Config                    0x0800164c   Section        0  bsp_ili9341_lcd.o(i.ILI9341_GPIO_Config)
    ILI9341_GPIO_Config                      0x0800164d   Thumb Code   398  bsp_ili9341_lcd.o(i.ILI9341_GPIO_Config)
    i.ILI9341_GramScan                       0x080017e4   Section        0  bsp_ili9341_lcd.o(i.ILI9341_GramScan)
    i.ILI9341_Init                           0x080018c4   Section        0  bsp_ili9341_lcd.o(i.ILI9341_Init)
    i.ILI9341_OpenWindow                     0x080018ec   Section        0  bsp_ili9341_lcd.o(i.ILI9341_OpenWindow)
    i.ILI9341_REG_Config                     0x0800194c   Section        0  bsp_ili9341_lcd.o(i.ILI9341_REG_Config)
    ILI9341_REG_Config                       0x0800194d   Thumb Code  1098  bsp_ili9341_lcd.o(i.ILI9341_REG_Config)
    i.ILI9341_ReadID                         0x08001d9c   Section        0  bsp_ili9341_lcd.o(i.ILI9341_ReadID)
    i.ILI9341_Read_Data                      0x08001e0c   Section        0  bsp_ili9341_lcd.o(i.ILI9341_Read_Data)
    i.ILI9341_Rst                            0x08001e18   Section        0  bsp_ili9341_lcd.o(i.ILI9341_Rst)
    i.ILI9341_Write_Cmd                      0x08001e40   Section        0  bsp_ili9341_lcd.o(i.ILI9341_Write_Cmd)
    i.ILI9341_Write_Data                     0x08001e48   Section        0  bsp_ili9341_lcd.o(i.ILI9341_Write_Data)
    i.Key_Scan                               0x08001e54   Section        0  bsp_key.o(i.Key_Scan)
    i.LCD_GetFont                            0x08001e7c   Section        0  bsp_ili9341_lcd.o(i.LCD_GetFont)
    i.LCD_SetBackColor                       0x08001e88   Section        0  bsp_ili9341_lcd.o(i.LCD_SetBackColor)
    i.LCD_SetTextColor                       0x08001e94   Section        0  bsp_ili9341_lcd.o(i.LCD_SetTextColor)
    i.LED_GPIO_Config                        0x08001ea0   Section        0  bsp_led.o(i.LED_GPIO_Config)
    i.MemManage_Handler                      0x08001f00   Section        0  stm32f10x_it.o(i.MemManage_Handler)
    i.NMI_Handler                            0x08001f04   Section        0  stm32f10x_it.o(i.NMI_Handler)
    i.NVIC_Init                              0x08001f08   Section        0  misc.o(i.NVIC_Init)
    i.NVIC_PriorityGroupConfig               0x08001f78   Section        0  misc.o(i.NVIC_PriorityGroupConfig)
    i.PWR_BackupAccessCmd                    0x08001f8c   Section        0  stm32f10x_pwr.o(i.PWR_BackupAccessCmd)
    i.PendSV_Handler                         0x08001f98   Section        0  stm32f10x_it.o(i.PendSV_Handler)
    i.RCC_AHBPeriphClockCmd                  0x08001f9c   Section        0  stm32f10x_rcc.o(i.RCC_AHBPeriphClockCmd)
    i.RCC_APB1PeriphClockCmd                 0x08001fbc   Section        0  stm32f10x_rcc.o(i.RCC_APB1PeriphClockCmd)
    i.RCC_APB2PeriphClockCmd                 0x08001fdc   Section        0  stm32f10x_rcc.o(i.RCC_APB2PeriphClockCmd)
    i.RCC_BackupResetCmd                     0x08001ffc   Section        0  stm32f10x_rcc.o(i.RCC_BackupResetCmd)
    i.RCC_ClearFlag                          0x08002008   Section        0  stm32f10x_rcc.o(i.RCC_ClearFlag)
    i.RCC_GetClocksFreq                      0x0800201c   Section        0  stm32f10x_rcc.o(i.RCC_GetClocksFreq)
    i.RCC_GetFlagStatus                      0x080020f0   Section        0  stm32f10x_rcc.o(i.RCC_GetFlagStatus)
    i.RCC_LSICmd                             0x0800212c   Section        0  stm32f10x_rcc.o(i.RCC_LSICmd)
    i.RCC_RTCCLKCmd                          0x08002138   Section        0  stm32f10x_rcc.o(i.RCC_RTCCLKCmd)
    i.RCC_RTCCLKConfig                       0x08002144   Section        0  stm32f10x_rcc.o(i.RCC_RTCCLKConfig)
    i.RTC_CheckAndConfig                     0x08002154   Section        0  bsp_rtc.o(i.RTC_CheckAndConfig)
    i.RTC_ClearITPendingBit                  0x08002280   Section        0  stm32f10x_rtc.o(i.RTC_ClearITPendingBit)
    i.RTC_Configuration                      0x08002290   Section        0  bsp_rtc.o(i.RTC_Configuration)
    i.RTC_EnterConfigMode                    0x080022e8   Section        0  stm32f10x_rtc.o(i.RTC_EnterConfigMode)
    i.RTC_ExitConfigMode                     0x080022fc   Section        0  stm32f10x_rtc.o(i.RTC_ExitConfigMode)
    i.RTC_GetCounter                         0x08002310   Section        0  stm32f10x_rtc.o(i.RTC_GetCounter)
    i.RTC_GetITStatus                        0x08002324   Section        0  stm32f10x_rtc.o(i.RTC_GetITStatus)
    i.RTC_IRQHandler                         0x08002348   Section        0  stm32f10x_it.o(i.RTC_IRQHandler)
    i.RTC_ITConfig                           0x08002380   Section        0  stm32f10x_rtc.o(i.RTC_ITConfig)
    i.RTC_NVIC_Config                        0x080023a0   Section        0  bsp_rtc.o(i.RTC_NVIC_Config)
    i.RTC_SetAlarm                           0x080023cc   Section        0  stm32f10x_rtc.o(i.RTC_SetAlarm)
    i.RTC_SetCounter                         0x080023e8   Section        0  stm32f10x_rtc.o(i.RTC_SetCounter)
    i.RTC_SetPrescaler                       0x08002404   Section        0  stm32f10x_rtc.o(i.RTC_SetPrescaler)
    i.RTC_WaitForLastTask                    0x08002424   Section        0  stm32f10x_rtc.o(i.RTC_WaitForLastTask)
    i.RTC_WaitForSynchro                     0x08002438   Section        0  stm32f10x_rtc.o(i.RTC_WaitForSynchro)
    i.SPI_Cmd                                0x0800245c   Section        0  stm32f10x_spi.o(i.SPI_Cmd)
    i.SPI_FLASH_BufferRead                   0x08002474   Section        0  bsp_spi_flash.o(i.SPI_FLASH_BufferRead)
    i.SPI_FLASH_Init                         0x080024c4   Section        0  bsp_spi_flash.o(i.SPI_FLASH_Init)
    i.SPI_FLASH_SendByte                     0x08002584   Section        0  bsp_spi_flash.o(i.SPI_FLASH_SendByte)
    i.SPI_I2S_GetFlagStatus                  0x080025fc   Section        0  stm32f10x_spi.o(i.SPI_I2S_GetFlagStatus)
    i.SPI_I2S_ReceiveData                    0x0800260e   Section        0  stm32f10x_spi.o(i.SPI_I2S_ReceiveData)
    i.SPI_I2S_SendData                       0x08002614   Section        0  stm32f10x_spi.o(i.SPI_I2S_SendData)
    i.SPI_Init                               0x08002618   Section        0  stm32f10x_spi.o(i.SPI_Init)
    i.SPI_TIMEOUT_UserCallback               0x08002654   Section        0  bsp_spi_flash.o(i.SPI_TIMEOUT_UserCallback)
    SPI_TIMEOUT_UserCallback                 0x08002655   Thumb Code    16  bsp_spi_flash.o(i.SPI_TIMEOUT_UserCallback)
    i.SVC_Handler                            0x08002694   Section        0  stm32f10x_it.o(i.SVC_Handler)
    i.SetSysClock                            0x08002696   Section        0  system_stm32f10x.o(i.SetSysClock)
    SetSysClock                              0x08002697   Thumb Code     8  system_stm32f10x.o(i.SetSysClock)
    i.SetSysClockTo72                        0x080026a0   Section        0  system_stm32f10x.o(i.SetSysClockTo72)
    SetSysClockTo72                          0x080026a1   Thumb Code   214  system_stm32f10x.o(i.SetSysClockTo72)
    i.StrCopy                                0x08002780   Section        0  bsp_calendar.o(i.StrCopy)
    i.SysTick_Config                         0x08002798   Section        0  delay.o(i.SysTick_Config)
    SysTick_Config                           0x08002799   Thumb Code    76  delay.o(i.SysTick_Config)
    i.SysTick_Handler                        0x080027ec   Section        0  stm32f10x_it.o(i.SysTick_Handler)
    i.SystemInit                             0x080027f0   Section        0  system_stm32f10x.o(i.SystemInit)
    i.Time_Adjust                            0x08002850   Section        0  bsp_rtc.o(i.Time_Adjust)
    i.Time_Display                           0x08002878   Section        0  bsp_rtc.o(i.Time_Display)
    i.Time_Regulate_Get                      0x08002abc   Section        0  bsp_rtc.o(i.Time_Regulate_Get)
    i.USART1_IRQHandler                      0x08002d88   Section        0  stm32f10x_it.o(i.USART1_IRQHandler)
    i.USART2_IRQHandler                      0x08002de8   Section        0  stm32f10x_it.o(i.USART2_IRQHandler)
    i.USART_ClearFlag                        0x08002e48   Section        0  stm32f10x_usart.o(i.USART_ClearFlag)
    i.USART_Cmd                              0x08002e5a   Section        0  stm32f10x_usart.o(i.USART_Cmd)
    i.USART_Config                           0x08002e74   Section        0  bsp_usart.o(i.USART_Config)
    i.USART_GetFlagStatus                    0x08002ef4   Section        0  stm32f10x_usart.o(i.USART_GetFlagStatus)
    i.USART_GetITStatus                      0x08002f0e   Section        0  stm32f10x_usart.o(i.USART_GetITStatus)
    i.USART_ITConfig                         0x08002f62   Section        0  stm32f10x_usart.o(i.USART_ITConfig)
    i.USART_Init                             0x08002fac   Section        0  stm32f10x_usart.o(i.USART_Init)
    i.USART_ReceiveData                      0x08003084   Section        0  stm32f10x_usart.o(i.USART_ReceiveData)
    i.USART_SendData                         0x0800308e   Section        0  stm32f10x_usart.o(i.USART_SendData)
    i.UsageFault_Handler                     0x08003096   Section        0  stm32f10x_it.o(i.UsageFault_Handler)
    i.__0printf$3                            0x0800309c   Section        0  printf3.o(i.__0printf$3)
    i.__0sprintf$3                           0x080030bc   Section        0  printf3.o(i.__0sprintf$3)
    i.__scatterload_copy                     0x080030e4   Section       14  handlers.o(i.__scatterload_copy)
    i.__scatterload_null                     0x080030f2   Section        2  handlers.o(i.__scatterload_null)
    i.__scatterload_zeroinit                 0x080030f4   Section       14  handlers.o(i.__scatterload_zeroinit)
    i._printf_core                           0x08003104   Section        0  printf3.o(i._printf_core)
    _printf_core                             0x08003105   Thumb Code   436  printf3.o(i._printf_core)
    i._sputc                                 0x080032bc   Section        0  printf3.o(i._sputc)
    _sputc                                   0x080032bd   Thumb Code    10  printf3.o(i._sputc)
    i.fgetc                                  0x080032c8   Section        0  bsp_usart.o(i.fgetc)
    i.fputc                                  0x080032e8   Section        0  bsp_usart.o(i.fputc)
    i.main                                   0x0800330c   Section        0  main.o(i.main)
    i.mktimev                                0x080034c4   Section        0  bsp_date.o(i.mktimev)
    i.to_tm                                  0x08003540   Section        0  bsp_date.o(i.to_tm)
    .constdata                               0x0800360c   Section      814  bsp_calendar.o(.constdata)
    MonthDayMax                              0x0800392e   Data          12  bsp_calendar.o(.constdata)
    .constdata                               0x0800393c   Section       48  bsp_date.o(.constdata)
    .constdata                               0x0800396c   Section    15200  fonts.o(.constdata)
    .constdata                               0x080074cc   Section       64  ctype_c.o(.constdata)
    .conststring                             0x0800750c   Section      335  bsp_calendar.o(.conststring)
    .conststring                             0x0800765c   Section      691  bsp_rtc.o(.conststring)
    .data                                    0x20000000   Section       56  main.o(.data)
    .data                                    0x20000038   Section      248  bsp_calendar.o(.data)
    .data                                    0x20000130   Section       48  bsp_date.o(.data)
    month_days                               0x20000130   Data          48  bsp_date.o(.data)
    .data                                    0x20000160   Section      164  bsp_rtc.o(.data)
    FirstDisplay                             0x20000200   Data           4  bsp_rtc.o(.data)
    .data                                    0x20000204   Section       16  bsp_ili9341_lcd.o(.data)
    LCD_Currentfonts                         0x2000020c   Data           4  bsp_ili9341_lcd.o(.data)
    CurrentTextColor                         0x20000210   Data           2  bsp_ili9341_lcd.o(.data)
    CurrentBackColor                         0x20000212   Data           2  bsp_ili9341_lcd.o(.data)
    .data                                    0x20000214   Section       25  fonts.o(.data)
    everRead                                 0x2000022c   Data           1  fonts.o(.data)
    .data                                    0x20000230   Section        4  bsp_spi_flash.o(.data)
    SPITimeout                               0x20000230   Data           4  bsp_spi_flash.o(.data)
    .data                                    0x20000234   Section       20  stm32f10x_rcc.o(.data)
    APBAHBPrescTable                         0x20000234   Data          16  stm32f10x_rcc.o(.data)
    ADCPrescTable                            0x20000244   Data           4  stm32f10x_rcc.o(.data)
    .data                                    0x20000248   Section        4  stdin.o(.data)
    .data                                    0x2000024c   Section        4  stdout.o(.data)
    .data                                    0x20000250   Section        3  fgetc_b.o(.data)
    ungetc_sp                                0x20000250   Data           1  fgetc_b.o(.data)
    ungetc_stack                             0x20000251   Data           2  fgetc_b.o(.data)
    .bss                                     0x20000254   Section     2056  stm32f10x_it.o(.bss)
    .bss                                     0x20000a5c   Section     1001  bsp_hc05.o(.bss)
    STACK                                    0x20000e48   Section     1024  startup_stm32f10x_hd.o(STACK)

    Global Symbols

    Symbol Name                              Value     Ov Type        Size  Object(Section)

    BuildAttributes$$THM_ISAv4$P$D$K$B$S$PE$A:L22UL41UL21$X:L11$S22US41US21$IEEE1$IW$USESV6$~STKCKD$USESV7$~SHL$OSPACE$ROPI$EBA8$MICROLIB$REQ8$PRES8$EABIv2 0x00000000   Number         0  anon$$obj.o ABSOLUTE
    __ARM_use_no_argv                        0x00000000   Number         0  main.o ABSOLUTE
    _printf_a                                0x00000000   Number         0  stubs.o ABSOLUTE
    _printf_c                                0x00000000   Number         0  stubs.o ABSOLUTE
    _printf_charcount                        0x00000000   Number         0  stubs.o ABSOLUTE
    _printf_d                                0x00000000   Number         0  stubs.o ABSOLUTE
    _printf_e                                0x00000000   Number         0  stubs.o ABSOLUTE
    _printf_f                                0x00000000   Number         0  stubs.o ABSOLUTE
    _printf_flags                            0x00000000   Number         0  stubs.o ABSOLUTE
    _printf_fp_dec                           0x00000000   Number         0  stubs.o ABSOLUTE
    _printf_fp_hex                           0x00000000   Number         0  stubs.o ABSOLUTE
    _printf_g                                0x00000000   Number         0  stubs.o ABSOLUTE
    _printf_i                                0x00000000   Number         0  stubs.o ABSOLUTE
    _printf_int_dec                          0x00000000   Number         0  stubs.o ABSOLUTE
    _printf_l                                0x00000000   Number         0  stubs.o ABSOLUTE
    _printf_lc                               0x00000000   Number         0  stubs.o ABSOLUTE
    _printf_ll                               0x00000000   Number         0  stubs.o ABSOLUTE
    _printf_lld                              0x00000000   Number         0  stubs.o ABSOLUTE
    _printf_lli                              0x00000000   Number         0  stubs.o ABSOLUTE
    _printf_llo                              0x00000000   Number         0  stubs.o ABSOLUTE
    _printf_llu                              0x00000000   Number         0  stubs.o ABSOLUTE
    _printf_llx                              0x00000000   Number         0  stubs.o ABSOLUTE
    _printf_longlong_dec                     0x00000000   Number         0  stubs.o ABSOLUTE
    _printf_longlong_hex                     0x00000000   Number         0  stubs.o ABSOLUTE
    _printf_longlong_oct                     0x00000000   Number         0  stubs.o ABSOLUTE
    _printf_ls                               0x00000000   Number         0  stubs.o ABSOLUTE
    _printf_mbtowc                           0x00000000   Number         0  stubs.o ABSOLUTE
    _printf_n                                0x00000000   Number         0  stubs.o ABSOLUTE
    _printf_o                                0x00000000   Number         0  stubs.o ABSOLUTE
    _printf_p                                0x00000000   Number         0  stubs.o ABSOLUTE
    _printf_percent                          0x00000000   Number         0  stubs.o ABSOLUTE
    _printf_pre_padding                      0x00000000   Number         0  stubs.o ABSOLUTE
    _printf_return_value                     0x00000000   Number         0  stubs.o ABSOLUTE
    _printf_s                                0x00000000   Number         0  stubs.o ABSOLUTE
    _printf_sizespec                         0x00000000   Number         0  stubs.o ABSOLUTE
    _printf_str                              0x00000000   Number         0  stubs.o ABSOLUTE
    _printf_truncate_signed                  0x00000000   Number         0  stubs.o ABSOLUTE
    _printf_truncate_unsigned                0x00000000   Number         0  stubs.o ABSOLUTE
    _printf_u                                0x00000000   Number         0  stubs.o ABSOLUTE
    _printf_wc                               0x00000000   Number         0  stubs.o ABSOLUTE
    _printf_wctomb                           0x00000000   Number         0  stubs.o ABSOLUTE
    _printf_widthprec                        0x00000000   Number         0  stubs.o ABSOLUTE
    _printf_x                                0x00000000   Number         0  stubs.o ABSOLUTE
    __arm_fini_                               - Undefined Weak Reference
    __cpp_initialize__aeabi_                  - Undefined Weak Reference
    __cxa_finalize                            - Undefined Weak Reference
    _clock_init                               - Undefined Weak Reference
    _microlib_exit                            - Undefined Weak Reference
    _scanf_longlong                           - Undefined Weak Reference
    _scanf_real                               - Undefined Weak Reference
    _scanf_string                             - Undefined Weak Reference
    __Vectors_Size                           0x00000130   Number         0  startup_stm32f10x_hd.o ABSOLUTE
    __Vectors                                0x08000000   Data           4  startup_stm32f10x_hd.o(RESET)
    __Vectors_End                            0x08000130   Data           0  startup_stm32f10x_hd.o(RESET)
    __main                                   0x08000131   Thumb Code     0  entry.o(.ARM.Collect$$$$00000000)
    _main_stk                                0x08000131   Thumb Code     0  entry2.o(.ARM.Collect$$$$00000001)
    _main_scatterload                        0x08000135   Thumb Code     0  entry5.o(.ARM.Collect$$$$00000004)
    __main_after_scatterload                 0x08000139   Thumb Code     0  entry5.o(.ARM.Collect$$$$00000004)
    _main_clock                              0x08000139   Thumb Code     0  entry7b.o(.ARM.Collect$$$$00000008)
    _main_cpp_init                           0x08000139   Thumb Code     0  entry8b.o(.ARM.Collect$$$$0000000A)
    _main_init                               0x08000139   Thumb Code     0  entry9a.o(.ARM.Collect$$$$0000000B)
    __rt_lib_shutdown_fini                   0x08000141   Thumb Code     0  entry12b.o(.ARM.Collect$$$$0000000E)
    __rt_final_cpp                           0x08000145   Thumb Code     0  entry10a.o(.ARM.Collect$$$$0000000F)
    __rt_final_exit                          0x08000145   Thumb Code     0  entry11a.o(.ARM.Collect$$$$00000011)
    Reset_Handler                            0x08000149   Thumb Code     8  startup_stm32f10x_hd.o(.text)
    ADC1_2_IRQHandler                        0x08000163   Thumb Code     0  startup_stm32f10x_hd.o(.text)
    ADC3_IRQHandler                          0x08000163   Thumb Code     0  startup_stm32f10x_hd.o(.text)
    CAN1_RX1_IRQHandler                      0x08000163   Thumb Code     0  startup_stm32f10x_hd.o(.text)
    CAN1_SCE_IRQHandler                      0x08000163   Thumb Code     0  startup_stm32f10x_hd.o(.text)
    DMA1_Channel1_IRQHandler                 0x08000163   Thumb Code     0  startup_stm32f10x_hd.o(.text)
    DMA1_Channel2_IRQHandler                 0x08000163   Thumb Code     0  startup_stm32f10x_hd.o(.text)
    DMA1_Channel3_IRQHandler                 0x08000163   Thumb Code     0  startup_stm32f10x_hd.o(.text)
    DMA1_Channel4_IRQHandler                 0x08000163   Thumb Code     0  startup_stm32f10x_hd.o(.text)
    DMA1_Channel5_IRQHandler                 0x08000163   Thumb Code     0  startup_stm32f10x_hd.o(.text)
    DMA1_Channel6_IRQHandler                 0x08000163   Thumb Code     0  startup_stm32f10x_hd.o(.text)
    DMA1_Channel7_IRQHandler                 0x08000163   Thumb Code     0  startup_stm32f10x_hd.o(.text)
    DMA2_Channel1_IRQHandler                 0x08000163   Thumb Code     0  startup_stm32f10x_hd.o(.text)
    DMA2_Channel2_IRQHandler                 0x08000163   Thumb Code     0  startup_stm32f10x_hd.o(.text)
    DMA2_Channel3_IRQHandler                 0x08000163   Thumb Code     0  startup_stm32f10x_hd.o(.text)
    DMA2_Channel4_5_IRQHandler               0x08000163   Thumb Code     0  startup_stm32f10x_hd.o(.text)
    EXTI0_IRQHandler                         0x08000163   Thumb Code     0  startup_stm32f10x_hd.o(.text)
    EXTI15_10_IRQHandler                     0x08000163   Thumb Code     0  startup_stm32f10x_hd.o(.text)
    EXTI1_IRQHandler                         0x08000163   Thumb Code     0  startup_stm32f10x_hd.o(.text)
    EXTI2_IRQHandler                         0x08000163   Thumb Code     0  startup_stm32f10x_hd.o(.text)
    EXTI3_IRQHandler                         0x08000163   Thumb Code     0  startup_stm32f10x_hd.o(.text)
    EXTI4_IRQHandler                         0x08000163   Thumb Code     0  startup_stm32f10x_hd.o(.text)
    EXTI9_5_IRQHandler                       0x08000163   Thumb Code     0  startup_stm32f10x_hd.o(.text)
    FLASH_IRQHandler                         0x08000163   Thumb Code     0  startup_stm32f10x_hd.o(.text)
    FSMC_IRQHandler                          0x08000163   Thumb Code     0  startup_stm32f10x_hd.o(.text)
    I2C1_ER_IRQHandler                       0x08000163   Thumb Code     0  startup_stm32f10x_hd.o(.text)
    I2C1_EV_IRQHandler                       0x08000163   Thumb Code     0  startup_stm32f10x_hd.o(.text)
    I2C2_ER_IRQHandler                       0x08000163   Thumb Code     0  startup_stm32f10x_hd.o(.text)
    I2C2_EV_IRQHandler                       0x08000163   Thumb Code     0  startup_stm32f10x_hd.o(.text)
    PVD_IRQHandler                           0x08000163   Thumb Code     0  startup_stm32f10x_hd.o(.text)
    RCC_IRQHandler                           0x08000163   Thumb Code     0  startup_stm32f10x_hd.o(.text)
    RTCAlarm_IRQHandler                      0x08000163   Thumb Code     0  startup_stm32f10x_hd.o(.text)
    SDIO_IRQHandler                          0x08000163   Thumb Code     0  startup_stm32f10x_hd.o(.text)
    SPI1_IRQHandler                          0x08000163   Thumb Code     0  startup_stm32f10x_hd.o(.text)
    SPI2_IRQHandler                          0x08000163   Thumb Code     0  startup_stm32f10x_hd.o(.text)
    SPI3_IRQHandler                          0x08000163   Thumb Code     0  startup_stm32f10x_hd.o(.text)
    TAMPER_IRQHandler                        0x08000163   Thumb Code     0  startup_stm32f10x_hd.o(.text)
    TIM1_BRK_IRQHandler                      0x08000163   Thumb Code     0  startup_stm32f10x_hd.o(.text)
    TIM1_CC_IRQHandler                       0x08000163   Thumb Code     0  startup_stm32f10x_hd.o(.text)
    TIM1_TRG_COM_IRQHandler                  0x08000163   Thumb Code     0  startup_stm32f10x_hd.o(.text)
    TIM1_UP_IRQHandler                       0x08000163   Thumb Code     0  startup_stm32f10x_hd.o(.text)
    TIM2_IRQHandler                          0x08000163   Thumb Code     0  startup_stm32f10x_hd.o(.text)
    TIM3_IRQHandler                          0x08000163   Thumb Code     0  startup_stm32f10x_hd.o(.text)
    TIM4_IRQHandler                          0x08000163   Thumb Code     0  startup_stm32f10x_hd.o(.text)
    TIM5_IRQHandler                          0x08000163   Thumb Code     0  startup_stm32f10x_hd.o(.text)
    TIM6_IRQHandler                          0x08000163   Thumb Code     0  startup_stm32f10x_hd.o(.text)
    TIM7_IRQHandler                          0x08000163   Thumb Code     0  startup_stm32f10x_hd.o(.text)
    TIM8_BRK_IRQHandler                      0x08000163   Thumb Code     0  startup_stm32f10x_hd.o(.text)
    TIM8_CC_IRQHandler                       0x08000163   Thumb Code     0  startup_stm32f10x_hd.o(.text)
    TIM8_TRG_COM_IRQHandler                  0x08000163   Thumb Code     0  startup_stm32f10x_hd.o(.text)
    TIM8_UP_IRQHandler                       0x08000163   Thumb Code     0  startup_stm32f10x_hd.o(.text)
    UART4_IRQHandler                         0x08000163   Thumb Code     0  startup_stm32f10x_hd.o(.text)
    UART5_IRQHandler                         0x08000163   Thumb Code     0  startup_stm32f10x_hd.o(.text)
    USART3_IRQHandler                        0x08000163   Thumb Code     0  startup_stm32f10x_hd.o(.text)
    USBWakeUp_IRQHandler                     0x08000163   Thumb Code     0  startup_stm32f10x_hd.o(.text)
    USB_HP_CAN1_TX_IRQHandler                0x08000163   Thumb Code     0  startup_stm32f10x_hd.o(.text)
    USB_LP_CAN1_RX0_IRQHandler               0x08000163   Thumb Code     0  startup_stm32f10x_hd.o(.text)
    WWDG_IRQHandler                          0x08000163   Thumb Code     0  startup_stm32f10x_hd.o(.text)
    __aeabi_memcpy                           0x0800016d   Thumb Code    36  memcpya.o(.text)
    __aeabi_memcpy4                          0x0800016d   Thumb Code     0  memcpya.o(.text)
    __aeabi_memcpy8                          0x0800016d   Thumb Code     0  memcpya.o(.text)
    __aeabi_memset                           0x08000191   Thumb Code    14  memseta.o(.text)
    __aeabi_memset4                          0x08000191   Thumb Code     0  memseta.o(.text)
    __aeabi_memset8                          0x08000191   Thumb Code     0  memseta.o(.text)
    __aeabi_memclr                           0x0800019f   Thumb Code     4  memseta.o(.text)
    __aeabi_memclr4                          0x0800019f   Thumb Code     0  memseta.o(.text)
    __aeabi_memclr8                          0x0800019f   Thumb Code     0  memseta.o(.text)
    _memset$wrapper                          0x080001a3   Thumb Code    18  memseta.o(.text)
    __0scanf                                 0x080001b5   Thumb Code    26  __0scanf.o(.text)
    _scanf_int                               0x080001d5   Thumb Code   332  _scanf_int.o(.text)
    __aeabi_uidiv                            0x08000321   Thumb Code     0  uidiv.o(.text)
    __aeabi_uidivmod                         0x08000321   Thumb Code    44  uidiv.o(.text)
    _chval                                   0x0800034d   Thumb Code    28  _chval.o(.text)
    __vfscanf_char_file                      0x08000369   Thumb Code    12  scanf_char_file.o(.text)
    __scatterload                            0x0800037d   Thumb Code    28  init.o(.text)
    __scatterload_rt2                        0x0800037d   Thumb Code     0  init.o(.text)
    _fgetc$bs                                0x080003a1   Thumb Code    28  fgetc_b.o(.text)
    __backspace                              0x080003bd   Thumb Code    10  fgetc_b.o(.text)
    __vfscanf_char                           0x080003d9   Thumb Code    20  scanf_char.o(.text)
    __semihosting_library_function           0x080003f5   Thumb Code     0  semi.o(.text)
    isspace                                  0x080003f5   Thumb Code    10  isspace_c.o(.text)
    __vfscanf                                0x08000401   Thumb Code   810  _scanf.o(.text)
    __I$use$semihosting$fgetc                0x08000731   Thumb Code     0  iusesemig.o(.text)
    __ctype_lookup                           0x08000731   Thumb Code    34  ctype_c.o(.text)
    __decompress                             0x08000759   Thumb Code     0  __dczerorl2.o(.text)
    __decompress1                            0x08000759   Thumb Code    86  __dczerorl2.o(.text)
    BEEP_GPIO_Config                         0x080007b1   Thumb Code    50  bsp_beep.o(i.BEEP_GPIO_Config)
    BKP_DeInit                               0x080007e9   Thumb Code    16  stm32f10x_bkp.o(i.BKP_DeInit)
    BKP_ReadBackupRegister                   0x080007f9   Thumb Code    24  stm32f10x_bkp.o(i.BKP_ReadBackupRegister)
    BKP_WriteBackupRegister                  0x08000815   Thumb Code    22  stm32f10x_bkp.o(i.BKP_WriteBackupRegister)
    BLT_USART_Config                         0x08000859   Thumb Code   152  bsp_usart_blt.o(i.BLT_USART_Config)
    BusFault_Handler                         0x080008f9   Thumb Code     4  stm32f10x_it.o(i.BusFault_Handler)
    DebugMon_Handler                         0x080008fd   Thumb Code     2  stm32f10x_it.o(i.DebugMon_Handler)
    Delay_ms                                 0x08000901   Thumb Code    54  delay.o(i.Delay_ms)
    FSMC_NORSRAMCmd                          0x0800093d   Thumb Code    46  stm32f10x_fsmc.o(i.FSMC_NORSRAMCmd)
    FSMC_NORSRAMInit                         0x08000971   Thumb Code   230  stm32f10x_fsmc.o(i.FSMC_NORSRAMInit)
    GPIO_Init                                0x08000a57   Thumb Code   278  stm32f10x_gpio.o(i.GPIO_Init)
    GPIO_ReadInputDataBit                    0x08000b6d   Thumb Code    18  stm32f10x_gpio.o(i.GPIO_ReadInputDataBit)
    GPIO_ResetBits                           0x08000b7f   Thumb Code     4  stm32f10x_gpio.o(i.GPIO_ResetBits)
    GPIO_SetBits                             0x08000b83   Thumb Code     4  stm32f10x_gpio.o(i.GPIO_SetBits)
    GetChinaCalendar                         0x08000b89   Thumb Code   506  bsp_calendar.o(i.GetChinaCalendar)
    GetChinaCalendarStr                      0x08000d91   Thumb Code   254  bsp_calendar.o(i.GetChinaCalendarStr)
    GetGBKCode_from_EXFlash                  0x08000eb9   Thumb Code    74  fonts.o(i.GetGBKCode_from_EXFlash)
    GetJieQi                                 0x08000f0d   Thumb Code   158  bsp_calendar.o(i.GetJieQi)
    GetJieQiStr                              0x08000fb5   Thumb Code   300  bsp_calendar.o(i.GetJieQiStr)
    GetMoonDay                               0x080010f9   Thumb Code   282  bsp_calendar.o(i.GetMoonDay)
    GetSkyEarth                              0x08001219   Thumb Code    56  bsp_calendar.o(i.GetSkyEarth)
    GregorianDay                             0x08001251   Thumb Code   146  bsp_date.o(i.GregorianDay)
    HC05_Init                                0x08001331   Thumb Code    72  bsp_hc05.o(i.HC05_Init)
    HardFault_Handler                        0x08001385   Thumb Code     4  stm32f10x_it.o(i.HardFault_Handler)
    ILI9341_BackLed_Control                  0x08001389   Thumb Code    30  bsp_ili9341_lcd.o(i.ILI9341_BackLed_Control)
    ILI9341_Clear                            0x080013ad   Thumb Code    40  bsp_ili9341_lcd.o(i.ILI9341_Clear)
    ILI9341_DispChar_CH                      0x080013ed   Thumb Code   122  bsp_ili9341_lcd.o(i.ILI9341_DispChar_CH)
    ILI9341_DispChar_EN                      0x08001471   Thumb Code   138  bsp_ili9341_lcd.o(i.ILI9341_DispChar_EN)
    ILI9341_DispStringLine_EN_CH             0x08001509   Thumb Code   168  bsp_ili9341_lcd.o(i.ILI9341_DispStringLine_EN_CH)
    ILI9341_GramScan                         0x080017e5   Thumb Code   208  bsp_ili9341_lcd.o(i.ILI9341_GramScan)
    ILI9341_Init                             0x080018c5   Thumb Code    34  bsp_ili9341_lcd.o(i.ILI9341_Init)
    ILI9341_OpenWindow                       0x080018ed   Thumb Code    96  bsp_ili9341_lcd.o(i.ILI9341_OpenWindow)
    ILI9341_ReadID                           0x08001d9d   Thumb Code   108  bsp_ili9341_lcd.o(i.ILI9341_ReadID)
    ILI9341_Read_Data                        0x08001e0d   Thumb Code     6  bsp_ili9341_lcd.o(i.ILI9341_Read_Data)
    ILI9341_Rst                              0x08001e19   Thumb Code    36  bsp_ili9341_lcd.o(i.ILI9341_Rst)
    ILI9341_Write_Cmd                        0x08001e41   Thumb Code     8  bsp_ili9341_lcd.o(i.ILI9341_Write_Cmd)
    ILI9341_Write_Data                       0x08001e49   Thumb Code     6  bsp_ili9341_lcd.o(i.ILI9341_Write_Data)
    Key_Scan                                 0x08001e55   Thumb Code    40  bsp_key.o(i.Key_Scan)
    LCD_GetFont                              0x08001e7d   Thumb Code     6  bsp_ili9341_lcd.o(i.LCD_GetFont)
    LCD_SetBackColor                         0x08001e89   Thumb Code     6  bsp_ili9341_lcd.o(i.LCD_SetBackColor)
    LCD_SetTextColor                         0x08001e95   Thumb Code     6  bsp_ili9341_lcd.o(i.LCD_SetTextColor)
    LED_GPIO_Config                          0x08001ea1   Thumb Code    90  bsp_led.o(i.LED_GPIO_Config)
    MemManage_Handler                        0x08001f01   Thumb Code     4  stm32f10x_it.o(i.MemManage_Handler)
    NMI_Handler                              0x08001f05   Thumb Code     2  stm32f10x_it.o(i.NMI_Handler)
    NVIC_Init                                0x08001f09   Thumb Code   100  misc.o(i.NVIC_Init)
    NVIC_PriorityGroupConfig                 0x08001f79   Thumb Code    10  misc.o(i.NVIC_PriorityGroupConfig)
    PWR_BackupAccessCmd                      0x08001f8d   Thumb Code     6  stm32f10x_pwr.o(i.PWR_BackupAccessCmd)
    PendSV_Handler                           0x08001f99   Thumb Code     2  stm32f10x_it.o(i.PendSV_Handler)
    RCC_AHBPeriphClockCmd                    0x08001f9d   Thumb Code    26  stm32f10x_rcc.o(i.RCC_AHBPeriphClockCmd)
    RCC_APB1PeriphClockCmd                   0x08001fbd   Thumb Code    26  stm32f10x_rcc.o(i.RCC_APB1PeriphClockCmd)
    RCC_APB2PeriphClockCmd                   0x08001fdd   Thumb Code    26  stm32f10x_rcc.o(i.RCC_APB2PeriphClockCmd)
    RCC_BackupResetCmd                       0x08001ffd   Thumb Code     6  stm32f10x_rcc.o(i.RCC_BackupResetCmd)
    RCC_ClearFlag                            0x08002009   Thumb Code    14  stm32f10x_rcc.o(i.RCC_ClearFlag)
    RCC_GetClocksFreq                        0x0800201d   Thumb Code   192  stm32f10x_rcc.o(i.RCC_GetClocksFreq)
    RCC_GetFlagStatus                        0x080020f1   Thumb Code    56  stm32f10x_rcc.o(i.RCC_GetFlagStatus)
    RCC_LSICmd                               0x0800212d   Thumb Code     6  stm32f10x_rcc.o(i.RCC_LSICmd)
    RCC_RTCCLKCmd                            0x08002139   Thumb Code     6  stm32f10x_rcc.o(i.RCC_RTCCLKCmd)
    RCC_RTCCLKConfig                         0x08002145   Thumb Code    12  stm32f10x_rcc.o(i.RCC_RTCCLKConfig)
    RTC_CheckAndConfig                       0x08002155   Thumb Code   140  bsp_rtc.o(i.RTC_CheckAndConfig)
    RTC_ClearITPendingBit                    0x08002281   Thumb Code    12  stm32f10x_rtc.o(i.RTC_ClearITPendingBit)
    RTC_Configuration                        0x08002291   Thumb Code    88  bsp_rtc.o(i.RTC_Configuration)
    RTC_EnterConfigMode                      0x080022e9   Thumb Code    14  stm32f10x_rtc.o(i.RTC_EnterConfigMode)
    RTC_ExitConfigMode                       0x080022fd   Thumb Code    16  stm32f10x_rtc.o(i.RTC_ExitConfigMode)
    RTC_GetCounter                           0x08002311   Thumb Code    16  stm32f10x_rtc.o(i.RTC_GetCounter)
    RTC_GetITStatus                          0x08002325   Thumb Code    32  stm32f10x_rtc.o(i.RTC_GetITStatus)
    RTC_IRQHandler                           0x08002349   Thumb Code    48  stm32f10x_it.o(i.RTC_IRQHandler)
    RTC_ITConfig                             0x08002381   Thumb Code    26  stm32f10x_rtc.o(i.RTC_ITConfig)
    RTC_NVIC_Config                          0x080023a1   Thumb Code    42  bsp_rtc.o(i.RTC_NVIC_Config)
    RTC_SetAlarm                             0x080023cd   Thumb Code    24  stm32f10x_rtc.o(i.RTC_SetAlarm)
    RTC_SetCounter                           0x080023e9   Thumb Code    24  stm32f10x_rtc.o(i.RTC_SetCounter)
    RTC_SetPrescaler                         0x08002405   Thumb Code    26  stm32f10x_rtc.o(i.RTC_SetPrescaler)
    RTC_WaitForLastTask                      0x08002425   Thumb Code    16  stm32f10x_rtc.o(i.RTC_WaitForLastTask)
    RTC_WaitForSynchro                       0x08002439   Thumb Code    30  stm32f10x_rtc.o(i.RTC_WaitForSynchro)
    SPI_Cmd                                  0x0800245d   Thumb Code    24  stm32f10x_spi.o(i.SPI_Cmd)
    SPI_FLASH_BufferRead                     0x08002475   Thumb Code    76  bsp_spi_flash.o(i.SPI_FLASH_BufferRead)
    SPI_FLASH_Init                           0x080024c5   Thumb Code   178  bsp_spi_flash.o(i.SPI_FLASH_Init)
    SPI_FLASH_SendByte                       0x08002585   Thumb Code   110  bsp_spi_flash.o(i.SPI_FLASH_SendByte)
    SPI_I2S_GetFlagStatus                    0x080025fd   Thumb Code    18  stm32f10x_spi.o(i.SPI_I2S_GetFlagStatus)
    SPI_I2S_ReceiveData                      0x0800260f   Thumb Code     6  stm32f10x_spi.o(i.SPI_I2S_ReceiveData)
    SPI_I2S_SendData                         0x08002615   Thumb Code     4  stm32f10x_spi.o(i.SPI_I2S_SendData)
    SPI_Init                                 0x08002619   Thumb Code    60  stm32f10x_spi.o(i.SPI_Init)
    SVC_Handler                              0x08002695   Thumb Code     2  stm32f10x_it.o(i.SVC_Handler)
    StrCopy                                  0x08002781   Thumb Code    24  bsp_calendar.o(i.StrCopy)
    SysTick_Handler                          0x080027ed   Thumb Code     2  stm32f10x_it.o(i.SysTick_Handler)
    SystemInit                               0x080027f1   Thumb Code    78  system_stm32f10x.o(i.SystemInit)
    Time_Adjust                              0x08002851   Thumb Code    40  bsp_rtc.o(i.Time_Adjust)
    Time_Display                             0x08002879   Thumb Code   384  bsp_rtc.o(i.Time_Display)
    Time_Regulate_Get                        0x08002abd   Thumb Code   452  bsp_rtc.o(i.Time_Regulate_Get)
    USART1_IRQHandler                        0x08002d89   Thumb Code    86  stm32f10x_it.o(i.USART1_IRQHandler)
    USART2_IRQHandler                        0x08002de9   Thumb Code    86  stm32f10x_it.o(i.USART2_IRQHandler)
    USART_ClearFlag                          0x08002e49   Thumb Code    18  stm32f10x_usart.o(i.USART_ClearFlag)
    USART_Cmd                                0x08002e5b   Thumb Code    24  stm32f10x_usart.o(i.USART_Cmd)
    USART_Config                             0x08002e75   Thumb Code   120  bsp_usart.o(i.USART_Config)
    USART_GetFlagStatus                      0x08002ef5   Thumb Code    26  stm32f10x_usart.o(i.USART_GetFlagStatus)
    USART_GetITStatus                        0x08002f0f   Thumb Code    84  stm32f10x_usart.o(i.USART_GetITStatus)
    USART_ITConfig                           0x08002f63   Thumb Code    74  stm32f10x_usart.o(i.USART_ITConfig)
    USART_Init                               0x08002fad   Thumb Code   210  stm32f10x_usart.o(i.USART_Init)
    USART_ReceiveData                        0x08003085   Thumb Code    10  stm32f10x_usart.o(i.USART_ReceiveData)
    USART_SendData                           0x0800308f   Thumb Code     8  stm32f10x_usart.o(i.USART_SendData)
    UsageFault_Handler                       0x08003097   Thumb Code     4  stm32f10x_it.o(i.UsageFault_Handler)
    __0printf$3                              0x0800309d   Thumb Code    22  printf3.o(i.__0printf$3)
    __1printf$3                              0x0800309d   Thumb Code     0  printf3.o(i.__0printf$3)
    __2printf                                0x0800309d   Thumb Code     0  printf3.o(i.__0printf$3)
    __0sprintf$3                             0x080030bd   Thumb Code    34  printf3.o(i.__0sprintf$3)
    __1sprintf$3                             0x080030bd   Thumb Code     0  printf3.o(i.__0sprintf$3)
    __2sprintf                               0x080030bd   Thumb Code     0  printf3.o(i.__0sprintf$3)
    __scatterload_copy                       0x080030e5   Thumb Code    14  handlers.o(i.__scatterload_copy)
    __scatterload_null                       0x080030f3   Thumb Code     2  handlers.o(i.__scatterload_null)
    __scatterload_zeroinit                   0x080030f5   Thumb Code    14  handlers.o(i.__scatterload_zeroinit)
    fgetc                                    0x080032c9   Thumb Code    26  bsp_usart.o(i.fgetc)
    fputc                                    0x080032e9   Thumb Code    32  bsp_usart.o(i.fputc)
    main                                     0x0800330d   Thumb Code   398  main.o(i.main)
    mktimev                                  0x080034c5   Thumb Code   120  bsp_date.o(i.mktimev)
    to_tm                                    0x08003541   Thumb Code   194  bsp_date.o(i.to_tm)
    year_code                                0x0800360c   Data         597  bsp_calendar.o(.constdata)
    YearMonthBit                             0x08003861   Data         153  bsp_calendar.o(.constdata)
    days                                     0x080038fa   Data          24  bsp_calendar.o(.constdata)
    day_code1                                0x08003912   Data           9  bsp_calendar.o(.constdata)
    day_code2                                0x0800391c   Data           6  bsp_calendar.o(.constdata)
    table_week                               0x08003922   Data          12  bsp_calendar.o(.constdata)
    ASCII8x16_Table                          0x0800396c   Data        1520  fonts.o(.constdata)
    ASCII16x24_Table                         0x08003f5c   Data        4560  fonts.o(.constdata)
    ASCII24x32_Table                         0x0800512c   Data        9120  fonts.o(.constdata)
    __ctype_categories                       0x080074cc   Data          64  ctype_c.o(.constdata)
    Region$$Table$$Base                      0x08007910   Number         0  anon$$obj.o(Region$$Table)
    Region$$Table$$Limit                     0x08007930   Number         0  anon$$obj.o(Region$$Table)
    systmtime                                0x20000000   Data          28  main.o(.data)
    clocktime                                0x2000001c   Data          28  main.o(.data)
    JieQiStr                                 0x20000038   Data          96  bsp_calendar.o(.data)
    sky                                      0x20000098   Data          40  bsp_calendar.o(.data)
    earth                                    0x200000c0   Data          48  bsp_calendar.o(.data)
    monthcode                                0x200000f0   Data          48  bsp_calendar.o(.data)
    nongliday                                0x20000120   Data          16  bsp_calendar.o(.data)
    TimeDisplay                              0x20000160   Data           4  bsp_rtc.o(.data)
    TimeAlarm                                0x20000164   Data           4  bsp_rtc.o(.data)
    WEEK_STR                                 0x20000168   Data          28  bsp_rtc.o(.data)
    zodiac_sign                              0x20000184   Data          48  bsp_rtc.o(.data)
    en_WEEK_STR                              0x200001b4   Data          28  bsp_rtc.o(.data)
    en_zodiac_sign                           0x200001d0   Data          48  bsp_rtc.o(.data)
    LCD_X_LENGTH                             0x20000204   Data           2  bsp_ili9341_lcd.o(.data)
    LCD_Y_LENGTH                             0x20000206   Data           2  bsp_ili9341_lcd.o(.data)
    LCD_SCAN_MODE                            0x20000208   Data           1  bsp_ili9341_lcd.o(.data)
    lcdid                                    0x2000020a   Data           2  bsp_ili9341_lcd.o(.data)
    Font8x16                                 0x20000214   Data           8  fonts.o(.data)
    Font16x24                                0x2000021c   Data           8  fonts.o(.data)
    Font24x32                                0x20000224   Data           8  fonts.o(.data)
    __stdin                                  0x20000248   Data           4  stdin.o(.data)
    __stdout                                 0x2000024c   Data           4  stdout.o(.data)
    DEBUG_USART_ReceiveData                  0x20000254   Data        1028  stm32f10x_it.o(.bss)
    BLT_USART_ReceiveData                    0x20000658   Data        1028  stm32f10x_it.o(.bss)
    bltDevList                               0x20000a5c   Data        1001  bsp_hc05.o(.bss)
    __initial_sp                             0x20001248   Data           0  startup_stm32f10x_hd.o(STACK)



==============================================================================

Memory Map of the image

  Image Entry point : 0x08000131

  Load Region LR_IROM1 (Base: 0x08000000, Size: 0x00007b84, Max: 0x00080000, ABSOLUTE, COMPRESSED[0x00007aa4])

    Execution Region ER_IROM1 (Exec base: 0x08000000, Load base: 0x08000000, Size: 0x00007930, Max: 0x00080000, ABSOLUTE)

    Exec Addr    Load Addr    Size         Type   Attr      Idx    E Section Name        Object

    0x08000000   0x08000000   0x00000130   Data   RO         4000    RESET               startup_stm32f10x_hd.o
    0x08000130   0x08000130   0x00000000   Code   RO         4005  * .ARM.Collect$$$$00000000  mc_w.l(entry.o)
    0x08000130   0x08000130   0x00000004   Code   RO         4279    .ARM.Collect$$$$00000001  mc_w.l(entry2.o)
    0x08000134   0x08000134   0x00000004   Code   RO         4282    .ARM.Collect$$$$00000004  mc_w.l(entry5.o)
    0x08000138   0x08000138   0x00000000   Code   RO         4284    .ARM.Collect$$$$00000008  mc_w.l(entry7b.o)
    0x08000138   0x08000138   0x00000000   Code   RO         4286    .ARM.Collect$$$$0000000A  mc_w.l(entry8b.o)
    0x08000138   0x08000138   0x00000008   Code   RO         4287    .ARM.Collect$$$$0000000B  mc_w.l(entry9a.o)
    0x08000140   0x08000140   0x00000004   Code   RO         4294    .ARM.Collect$$$$0000000E  mc_w.l(entry12b.o)
    0x08000144   0x08000144   0x00000000   Code   RO         4289    .ARM.Collect$$$$0000000F  mc_w.l(entry10a.o)
    0x08000144   0x08000144   0x00000000   Code   RO         4291    .ARM.Collect$$$$00000011  mc_w.l(entry11a.o)
    0x08000144   0x08000144   0x00000004   Code   RO         4280    .ARM.Collect$$$$00002712  mc_w.l(entry2.o)
    0x08000148   0x08000148   0x00000024   Code   RO         4001    .text               startup_stm32f10x_hd.o
    0x0800016c   0x0800016c   0x00000024   Code   RO         4008    .text               mc_w.l(memcpya.o)
    0x08000190   0x08000190   0x00000024   Code   RO         4010    .text               mc_w.l(memseta.o)
    0x080001b4   0x080001b4   0x00000020   Code   RO         4275    .text               mc_w.l(__0scanf.o)
    0x080001d4   0x080001d4   0x0000014c   Code   RO         4277    .text               mc_w.l(_scanf_int.o)
    0x08000320   0x08000320   0x0000002c   Code   RO         4297    .text               mc_w.l(uidiv.o)
    0x0800034c   0x0800034c   0x0000001c   Code   RO         4301    .text               mc_w.l(_chval.o)
    0x08000368   0x08000368   0x00000014   Code   RO         4303    .text               mc_w.l(scanf_char_file.o)
    0x0800037c   0x0800037c   0x00000024   Code   RO         4316    .text               mc_w.l(init.o)
    0x080003a0   0x080003a0   0x0000002c   Code   RO         4318    .text               mc_w.l(fgetc_b.o)
    0x080003cc   0x080003cc   0x00000028   Code   RO         4327    .text               mc_w.l(scanf_char.o)
    0x080003f4   0x080003f4   0x00000000   Code   RO         4331    .text               mc_w.l(semi.o)
    0x080003f4   0x080003f4   0x0000000a   Code   RO         4332    .text               mc_w.l(isspace_c.o)
    0x080003fe   0x080003fe   0x00000002   PAD
    0x08000400   0x08000400   0x00000330   Code   RO         4334    .text               mc_w.l(_scanf.o)
    0x08000730   0x08000730   0x00000000   Code   RO         4336    .text               mc_w.l(iusesemig.o)
    0x08000730   0x08000730   0x00000028   Code   RO         4337    .text               mc_w.l(ctype_c.o)
    0x08000758   0x08000758   0x00000056   Code   RO         4348    .text               mc_w.l(__dczerorl2.o)
    0x080007ae   0x080007ae   0x00000002   PAD
    0x080007b0   0x080007b0   0x00000038   Code   RO          895    i.BEEP_GPIO_Config  bsp_beep.o
    0x080007e8   0x080007e8   0x00000010   Code   RO         1291    i.BKP_DeInit        stm32f10x_bkp.o
    0x080007f8   0x080007f8   0x0000001c   Code   RO         1296    i.BKP_ReadBackupRegister  stm32f10x_bkp.o
    0x08000814   0x08000814   0x0000001c   Code   RO         1300    i.BKP_WriteBackupRegister  stm32f10x_bkp.o
    0x08000830   0x08000830   0x00000026   Code   RO          910    i.BLT_NVIC_Configuration  bsp_usart_blt.o
    0x08000856   0x08000856   0x00000002   PAD
    0x08000858   0x08000858   0x000000a0   Code   RO          911    i.BLT_USART_Config  bsp_usart_blt.o
    0x080008f8   0x080008f8   0x00000004   Code   RO          154    i.BusFault_Handler  stm32f10x_it.o
    0x080008fc   0x080008fc   0x00000002   Code   RO          155    i.DebugMon_Handler  stm32f10x_it.o
    0x080008fe   0x080008fe   0x00000002   PAD
    0x08000900   0x08000900   0x0000003c   Code   RO          750    i.Delay_ms          delay.o
    0x0800093c   0x0800093c   0x00000034   Code   RO         2067    i.FSMC_NORSRAMCmd   stm32f10x_fsmc.o
    0x08000970   0x08000970   0x000000e6   Code   RO         2069    i.FSMC_NORSRAMInit  stm32f10x_fsmc.o
    0x08000a56   0x08000a56   0x00000116   Code   RO         2182    i.GPIO_Init         stm32f10x_gpio.o
    0x08000b6c   0x08000b6c   0x00000012   Code   RO         2186    i.GPIO_ReadInputDataBit  stm32f10x_gpio.o
    0x08000b7e   0x08000b7e   0x00000004   Code   RO         2189    i.GPIO_ResetBits    stm32f10x_gpio.o
    0x08000b82   0x08000b82   0x00000004   Code   RO         2190    i.GPIO_SetBits      stm32f10x_gpio.o
    0x08000b86   0x08000b86   0x00000002   PAD
    0x08000b88   0x08000b88   0x00000208   Code   RO          266    i.GetChinaCalendar  bsp_calendar.o
    0x08000d90   0x08000d90   0x00000128   Code   RO          267    i.GetChinaCalendarStr  bsp_calendar.o
    0x08000eb8   0x08000eb8   0x00000054   Code   RO          728    i.GetGBKCode_from_EXFlash  fonts.o
    0x08000f0c   0x08000f0c   0x000000a8   Code   RO          268    i.GetJieQi          bsp_calendar.o
    0x08000fb4   0x08000fb4   0x00000144   Code   RO          269    i.GetJieQiStr       bsp_calendar.o
    0x080010f8   0x080010f8   0x00000120   Code   RO          270    i.GetMoonDay        bsp_calendar.o
    0x08001218   0x08001218   0x00000038   Code   RO          271    i.GetSkyEarth       bsp_calendar.o
    0x08001250   0x08001250   0x00000098   Code   RO          319    i.GregorianDay      bsp_date.o
    0x080012e8   0x080012e8   0x00000048   Code   RO          705    i.HC05_GPIO_Config  bsp_hc05.o
    0x08001330   0x08001330   0x00000054   Code   RO          706    i.HC05_Init         bsp_hc05.o
    0x08001384   0x08001384   0x00000004   Code   RO          156    i.HardFault_Handler  stm32f10x_it.o
    0x08001388   0x08001388   0x00000024   Code   RO          420    i.ILI9341_BackLed_Control  bsp_ili9341_lcd.o
    0x080013ac   0x080013ac   0x0000002c   Code   RO          421    i.ILI9341_Clear     bsp_ili9341_lcd.o
    0x080013d8   0x080013d8   0x00000012   Code   RO          422    i.ILI9341_Delay     bsp_ili9341_lcd.o
    0x080013ea   0x080013ea   0x00000002   PAD
    0x080013ec   0x080013ec   0x00000084   Code   RO          423    i.ILI9341_DispChar_CH  bsp_ili9341_lcd.o
    0x08001470   0x08001470   0x00000098   Code   RO          424    i.ILI9341_DispChar_EN  bsp_ili9341_lcd.o
    0x08001508   0x08001508   0x000000b4   Code   RO          426    i.ILI9341_DispStringLine_EN_CH  bsp_ili9341_lcd.o
    0x080015bc   0x080015bc   0x0000006e   Code   RO          438    i.ILI9341_FSMC_Config  bsp_ili9341_lcd.o
    0x0800162a   0x0800162a   0x00000020   Code   RO          439    i.ILI9341_FillColor  bsp_ili9341_lcd.o
    0x0800164a   0x0800164a   0x00000002   PAD
    0x0800164c   0x0800164c   0x00000198   Code   RO          440    i.ILI9341_GPIO_Config  bsp_ili9341_lcd.o
    0x080017e4   0x080017e4   0x000000e0   Code   RO          442    i.ILI9341_GramScan  bsp_ili9341_lcd.o
    0x080018c4   0x080018c4   0x00000028   Code   RO          443    i.ILI9341_Init      bsp_ili9341_lcd.o
    0x080018ec   0x080018ec   0x00000060   Code   RO          444    i.ILI9341_OpenWindow  bsp_ili9341_lcd.o
    0x0800194c   0x0800194c   0x00000450   Code   RO          445    i.ILI9341_REG_Config  bsp_ili9341_lcd.o
    0x08001d9c   0x08001d9c   0x00000070   Code   RO          446    i.ILI9341_ReadID    bsp_ili9341_lcd.o
    0x08001e0c   0x08001e0c   0x0000000c   Code   RO          664    i.ILI9341_Read_Data  bsp_ili9341_lcd.o
    0x08001e18   0x08001e18   0x00000028   Code   RO          448    i.ILI9341_Rst       bsp_ili9341_lcd.o
    0x08001e40   0x08001e40   0x00000008   Code   RO          654    i.ILI9341_Write_Cmd  bsp_ili9341_lcd.o
    0x08001e48   0x08001e48   0x0000000c   Code   RO          659    i.ILI9341_Write_Data  bsp_ili9341_lcd.o
    0x08001e54   0x08001e54   0x00000028   Code   RO          685    i.Key_Scan          bsp_key.o
    0x08001e7c   0x08001e7c   0x0000000c   Code   RO          454    i.LCD_GetFont       bsp_ili9341_lcd.o
    0x08001e88   0x08001e88   0x0000000c   Code   RO          455    i.LCD_SetBackColor  bsp_ili9341_lcd.o
    0x08001e94   0x08001e94   0x0000000c   Code   RO          458    i.LCD_SetTextColor  bsp_ili9341_lcd.o
    0x08001ea0   0x08001ea0   0x00000060   Code   RO          405    i.LED_GPIO_Config   bsp_led.o
    0x08001f00   0x08001f00   0x00000004   Code   RO          157    i.MemManage_Handler  stm32f10x_it.o
    0x08001f04   0x08001f04   0x00000002   Code   RO          158    i.NMI_Handler       stm32f10x_it.o
    0x08001f06   0x08001f06   0x00000002   PAD
    0x08001f08   0x08001f08   0x00000070   Code   RO         1031    i.NVIC_Init         misc.o
    0x08001f78   0x08001f78   0x00000014   Code   RO         1032    i.NVIC_PriorityGroupConfig  misc.o
    0x08001f8c   0x08001f8c   0x0000000c   Code   RO         2536    i.PWR_BackupAccessCmd  stm32f10x_pwr.o
    0x08001f98   0x08001f98   0x00000002   Code   RO          159    i.PendSV_Handler    stm32f10x_it.o
    0x08001f9a   0x08001f9a   0x00000002   PAD
    0x08001f9c   0x08001f9c   0x00000020   Code   RO         2597    i.RCC_AHBPeriphClockCmd  stm32f10x_rcc.o
    0x08001fbc   0x08001fbc   0x00000020   Code   RO         2598    i.RCC_APB1PeriphClockCmd  stm32f10x_rcc.o
    0x08001fdc   0x08001fdc   0x00000020   Code   RO         2600    i.RCC_APB2PeriphClockCmd  stm32f10x_rcc.o
    0x08001ffc   0x08001ffc   0x0000000c   Code   RO         2603    i.RCC_BackupResetCmd  stm32f10x_rcc.o
    0x08002008   0x08002008   0x00000014   Code   RO         2604    i.RCC_ClearFlag     stm32f10x_rcc.o
    0x0800201c   0x0800201c   0x000000d4   Code   RO         2608    i.RCC_GetClocksFreq  stm32f10x_rcc.o
    0x080020f0   0x080020f0   0x0000003c   Code   RO         2609    i.RCC_GetFlagStatus  stm32f10x_rcc.o
    0x0800212c   0x0800212c   0x0000000c   Code   RO         2617    i.RCC_LSICmd        stm32f10x_rcc.o
    0x08002138   0x08002138   0x0000000c   Code   RO         2623    i.RCC_RTCCLKCmd     stm32f10x_rcc.o
    0x08002144   0x08002144   0x00000010   Code   RO         2624    i.RCC_RTCCLKConfig  stm32f10x_rcc.o
    0x08002154   0x08002154   0x0000012c   Code   RO          346    i.RTC_CheckAndConfig  bsp_rtc.o
    0x08002280   0x08002280   0x00000010   Code   RO         2797    i.RTC_ClearITPendingBit  stm32f10x_rtc.o
    0x08002290   0x08002290   0x00000058   Code   RO          347    i.RTC_Configuration  bsp_rtc.o
    0x080022e8   0x080022e8   0x00000014   Code   RO         2798    i.RTC_EnterConfigMode  stm32f10x_rtc.o
    0x080022fc   0x080022fc   0x00000014   Code   RO         2799    i.RTC_ExitConfigMode  stm32f10x_rtc.o
    0x08002310   0x08002310   0x00000014   Code   RO         2800    i.RTC_GetCounter    stm32f10x_rtc.o
    0x08002324   0x08002324   0x00000024   Code   RO         2803    i.RTC_GetITStatus   stm32f10x_rtc.o
    0x08002348   0x08002348   0x00000038   Code   RO          160    i.RTC_IRQHandler    stm32f10x_it.o
    0x08002380   0x08002380   0x00000020   Code   RO         2804    i.RTC_ITConfig      stm32f10x_rtc.o
    0x080023a0   0x080023a0   0x0000002a   Code   RO          348    i.RTC_NVIC_Config   bsp_rtc.o
    0x080023ca   0x080023ca   0x00000002   PAD
    0x080023cc   0x080023cc   0x0000001c   Code   RO         2805    i.RTC_SetAlarm      stm32f10x_rtc.o
    0x080023e8   0x080023e8   0x0000001c   Code   RO         2806    i.RTC_SetCounter    stm32f10x_rtc.o
    0x08002404   0x08002404   0x00000020   Code   RO         2807    i.RTC_SetPrescaler  stm32f10x_rtc.o
    0x08002424   0x08002424   0x00000014   Code   RO         2808    i.RTC_WaitForLastTask  stm32f10x_rtc.o
    0x08002438   0x08002438   0x00000024   Code   RO         2809    i.RTC_WaitForSynchro  stm32f10x_rtc.o
    0x0800245c   0x0800245c   0x00000018   Code   RO         3077    i.SPI_Cmd           stm32f10x_spi.o
    0x08002474   0x08002474   0x00000050   Code   RO          786    i.SPI_FLASH_BufferRead  bsp_spi_flash.o
    0x080024c4   0x080024c4   0x000000c0   Code   RO          789    i.SPI_FLASH_Init    bsp_spi_flash.o
    0x08002584   0x08002584   0x00000078   Code   RO          795    i.SPI_FLASH_SendByte  bsp_spi_flash.o
    0x080025fc   0x080025fc   0x00000012   Code   RO         3085    i.SPI_I2S_GetFlagStatus  stm32f10x_spi.o
    0x0800260e   0x0800260e   0x00000006   Code   RO         3088    i.SPI_I2S_ReceiveData  stm32f10x_spi.o
    0x08002614   0x08002614   0x00000004   Code   RO         3089    i.SPI_I2S_SendData  stm32f10x_spi.o
    0x08002618   0x08002618   0x0000003c   Code   RO         3090    i.SPI_Init          stm32f10x_spi.o
    0x08002654   0x08002654   0x00000040   Code   RO          802    i.SPI_TIMEOUT_UserCallback  bsp_spi_flash.o
    0x08002694   0x08002694   0x00000002   Code   RO          161    i.SVC_Handler       stm32f10x_it.o
    0x08002696   0x08002696   0x00000008   Code   RO          978    i.SetSysClock       system_stm32f10x.o
    0x0800269e   0x0800269e   0x00000002   PAD
    0x080026a0   0x080026a0   0x000000e0   Code   RO          979    i.SetSysClockTo72   system_stm32f10x.o
    0x08002780   0x08002780   0x00000018   Code   RO          272    i.StrCopy           bsp_calendar.o
    0x08002798   0x08002798   0x00000054   Code   RO          753    i.SysTick_Config    delay.o
    0x080027ec   0x080027ec   0x00000002   Code   RO          162    i.SysTick_Handler   stm32f10x_it.o
    0x080027ee   0x080027ee   0x00000002   PAD
    0x080027f0   0x080027f0   0x00000060   Code   RO          981    i.SystemInit        system_stm32f10x.o
    0x08002850   0x08002850   0x00000028   Code   RO          349    i.Time_Adjust       bsp_rtc.o
    0x08002878   0x08002878   0x00000244   Code   RO          350    i.Time_Display      bsp_rtc.o
    0x08002abc   0x08002abc   0x000002cc   Code   RO          351    i.Time_Regulate_Get  bsp_rtc.o
    0x08002d88   0x08002d88   0x00000060   Code   RO          163    i.USART1_IRQHandler  stm32f10x_it.o
    0x08002de8   0x08002de8   0x00000060   Code   RO          164    i.USART2_IRQHandler  stm32f10x_it.o
    0x08002e48   0x08002e48   0x00000012   Code   RO         3764    i.USART_ClearFlag   stm32f10x_usart.o
    0x08002e5a   0x08002e5a   0x00000018   Code   RO         3768    i.USART_Cmd         stm32f10x_usart.o
    0x08002e72   0x08002e72   0x00000002   PAD
    0x08002e74   0x08002e74   0x00000080   Code   RO          239    i.USART_Config      bsp_usart.o
    0x08002ef4   0x08002ef4   0x0000001a   Code   RO         3771    i.USART_GetFlagStatus  stm32f10x_usart.o
    0x08002f0e   0x08002f0e   0x00000054   Code   RO         3772    i.USART_GetITStatus  stm32f10x_usart.o
    0x08002f62   0x08002f62   0x0000004a   Code   RO         3774    i.USART_ITConfig    stm32f10x_usart.o
    0x08002fac   0x08002fac   0x000000d8   Code   RO         3775    i.USART_Init        stm32f10x_usart.o
    0x08003084   0x08003084   0x0000000a   Code   RO         3782    i.USART_ReceiveData  stm32f10x_usart.o
    0x0800308e   0x0800308e   0x00000008   Code   RO         3785    i.USART_SendData    stm32f10x_usart.o
    0x08003096   0x08003096   0x00000004   Code   RO          165    i.UsageFault_Handler  stm32f10x_it.o
    0x0800309a   0x0800309a   0x00000002   PAD
    0x0800309c   0x0800309c   0x00000020   Code   RO         4103    i.__0printf$3       mc_w.l(printf3.o)
    0x080030bc   0x080030bc   0x00000028   Code   RO         4105    i.__0sprintf$3      mc_w.l(printf3.o)
    0x080030e4   0x080030e4   0x0000000e   Code   RO         4342    i.__scatterload_copy  mc_w.l(handlers.o)
    0x080030f2   0x080030f2   0x00000002   Code   RO         4343    i.__scatterload_null  mc_w.l(handlers.o)
    0x080030f4   0x080030f4   0x0000000e   Code   RO         4344    i.__scatterload_zeroinit  mc_w.l(handlers.o)
    0x08003102   0x08003102   0x00000002   PAD
    0x08003104   0x08003104   0x000001b8   Code   RO         4110    i._printf_core      mc_w.l(printf3.o)
    0x080032bc   0x080032bc   0x0000000a   Code   RO         4112    i._sputc            mc_w.l(printf3.o)
    0x080032c6   0x080032c6   0x00000002   PAD
    0x080032c8   0x080032c8   0x00000020   Code   RO          240    i.fgetc             bsp_usart.o
    0x080032e8   0x080032e8   0x00000024   Code   RO          241    i.fputc             bsp_usart.o
    0x0800330c   0x0800330c   0x000001b8   Code   RO            1    i.main              main.o
    0x080034c4   0x080034c4   0x0000007c   Code   RO          320    i.mktimev           bsp_date.o
    0x08003540   0x08003540   0x000000cc   Code   RO          321    i.to_tm             bsp_date.o
    0x0800360c   0x0800360c   0x0000032e   Data   RO          273    .constdata          bsp_calendar.o
    0x0800393a   0x0800393a   0x00000002   PAD
    0x0800393c   0x0800393c   0x00000030   Data   RO          322    .constdata          bsp_date.o
    0x0800396c   0x0800396c   0x00003b60   Data   RO          729    .constdata          fonts.o
    0x080074cc   0x080074cc   0x00000040   Data   RO         4338    .constdata          mc_w.l(ctype_c.o)
    0x0800750c   0x0800750c   0x0000014f   Data   RO          274    .conststring        bsp_calendar.o
    0x0800765b   0x0800765b   0x00000001   PAD
    0x0800765c   0x0800765c   0x000002b3   Data   RO          353    .conststring        bsp_rtc.o
    0x0800790f   0x0800790f   0x00000001   PAD
    0x08007910   0x08007910   0x00000020   Data   RO         4340    Region$$Table       anon$$obj.o


    Execution Region RW_IRAM1 (Exec base: 0x20000000, Load base: 0x08007930, Size: 0x00001248, Max: 0x00010000, ABSOLUTE, COMPRESSED[0x00000174])

    Exec Addr    Load Addr    Size         Type   Attr      Idx    E Section Name        Object

    0x20000000   COMPRESSED   0x00000038   Data   RW            2    .data               main.o
    0x20000038   COMPRESSED   0x000000f8   Data   RW          275    .data               bsp_calendar.o
    0x20000130   COMPRESSED   0x00000030   Data   RW          323    .data               bsp_date.o
    0x20000160   COMPRESSED   0x000000a4   Data   RW          354    .data               bsp_rtc.o
    0x20000204   COMPRESSED   0x00000010   Data   RW          460    .data               bsp_ili9341_lcd.o
    0x20000214   COMPRESSED   0x00000019   Data   RW          730    .data               fonts.o
    0x2000022d   COMPRESSED   0x00000003   PAD
    0x20000230   COMPRESSED   0x00000004   Data   RW          803    .data               bsp_spi_flash.o
    0x20000234   COMPRESSED   0x00000014   Data   RW         2628    .data               stm32f10x_rcc.o
    0x20000248   COMPRESSED   0x00000004   Data   RW         4295    .data               mc_w.l(stdin.o)
    0x2000024c   COMPRESSED   0x00000004   Data   RW         4296    .data               mc_w.l(stdout.o)
    0x20000250   COMPRESSED   0x00000003   Data   RW         4319    .data               mc_w.l(fgetc_b.o)
    0x20000253   COMPRESSED   0x00000001   PAD
    0x20000254        -       0x00000808   Zero   RW          166    .bss                stm32f10x_it.o
    0x20000a5c        -       0x000003e9   Zero   RW          707    .bss                bsp_hc05.o
    0x20000e45   COMPRESSED   0x00000003   PAD
    0x20000e48        -       0x00000400   Zero   RW         3998    STACK               startup_stm32f10x_hd.o


==============================================================================

Image component sizes


      Code (inc. data)   RO Data    RW Data    ZI Data      Debug   Object Name

        56          6          0          0          0        471   bsp_beep.o
      1676        110       1149        248          0       6819   bsp_calendar.o
       480         20         48         48          0       2409   bsp_date.o
       156         16          0          0       1001       2653   bsp_hc05.o
      2796        132          0         16          0      13826   bsp_ili9341_lcd.o
        40          0          0          0          0        819   bsp_key.o
        96          6          0          0          0        490   bsp_led.o
      1766        634        691        164          0       4320   bsp_rtc.o
       456         76          0          4          0       2817   bsp_spi_flash.o
       196         18          0          0          0       1591   bsp_usart.o
       198          8          0          0          0       1055   bsp_usart_blt.o
         0          0          0          0          0         32   core_cm3.o
       144         14          0          0          0      16070   delay.o
        84         10      15200         25          0       2055   fonts.o
       440         42          0         56          0     251276   main.o
       132         22          0          0          0       1355   misc.o
        36          8        304          0       1024        768   startup_stm32f10x_hd.o
        72         10          0          0          0       2448   stm32f10x_bkp.o
       282          6          0          0          0       1637   stm32f10x_fsmc.o
       304          0          0          0          0       3368   stm32f10x_gpio.o
       274         28          0          0       2056       5299   stm32f10x_it.o
        12          6          0          0          0        454   stm32f10x_pwr.o
       440         70          0         20          0       7491   stm32f10x_rcc.o
       288         52          0          0          0       5103   stm32f10x_rtc.o
       112          0          0          0          0       3486   stm32f10x_spi.o
       460          6          0          0          0       6211   stm32f10x_usart.o
       328         28          0          0          0       1721   system_stm32f10x.o

    ----------------------------------------------------------------------
     11348       1328      17428        584       4084     346044   Object Totals
         0          0         32          0          0          0   (incl. Generated)
        24          0          4          3          3          0   (incl. Padding)

    ----------------------------------------------------------------------

      Code (inc. data)   RO Data    RW Data    ZI Data      Debug   Library Member Name

        32          6          0          0          0         84   __0scanf.o
        86          0          0          0          0          0   __dczerorl2.o
        28          0          0          0          0         68   _chval.o
       816          6          0          0          0        112   _scanf.o
       332          0          0          0          0         96   _scanf_int.o
        40          6         64          0          0         68   ctype_c.o
         0          0          0          0          0          0   entry.o
         0          0          0          0          0          0   entry10a.o
         0          0          0          0          0          0   entry11a.o
         4          0          0          0          0          0   entry12b.o
         8          4          0          0          0          0   entry2.o
         4          0          0          0          0          0   entry5.o
         0          0          0          0          0          0   entry7b.o
         0          0          0          0          0          0   entry8b.o
         8          4          0          0          0          0   entry9a.o
        44          6          0          3          0        144   fgetc_b.o
        30          0          0          0          0          0   handlers.o
        36          8          0          0          0         68   init.o
        10          0          0          0          0         68   isspace_c.o
         0          0          0          0          0          0   iusesemig.o
        36          0          0          0          0         68   memcpya.o
        36          0          0          0          0        108   memseta.o
       522         20          0          0          0        336   printf3.o
        40          8          0          0          0         84   scanf_char.o
        20          8          0          0          0         68   scanf_char_file.o
         0          0          0          0          0          0   semi.o
         0          0          0          4          0          0   stdin.o
         0          0          0          4          0          0   stdout.o
        44          0          0          0          0         80   uidiv.o

    ----------------------------------------------------------------------
      2184         76         64         12          0       1452   Library Totals
         8          0          0          1          0          0   (incl. Padding)

    ----------------------------------------------------------------------

      Code (inc. data)   RO Data    RW Data    ZI Data      Debug   Library Name

      2176         76         64         11          0       1452   mc_w.l

    ----------------------------------------------------------------------
      2184         76         64         12          0       1452   Library Totals

    ----------------------------------------------------------------------

==============================================================================


      Code (inc. data)   RO Data    RW Data    ZI Data      Debug   

     13532       1404      17492        596       4084     341228   Grand Totals
     13532       1404      17492        372       4084     341228   ELF Image Totals (compressed)
     13532       1404      17492        372          0          0   ROM Totals

==============================================================================

    Total RO  Size (Code + RO Data)                31024 (  30.30kB)
    Total RW  Size (RW Data + ZI Data)              4680 (   4.57kB)
    Total ROM Size (Code + RO Data + RW Data)      31396 (  30.66kB)

==============================================================================

